{
  "_format": "hh-sol-artifact-1",
  "contractName": "Anchor",
  "sourceName": "contracts/anchorFinal2.sol",
  "abi": [
    {
      "inputs": [],
      "stateMutability": "nonpayable",
      "type": "constructor"
    },
    {
      "anonymous": false,
      "inputs": [
        {
          "indexed": true,
          "internalType": "uint256",
          "name": "appId",
          "type": "uint256"
        },
        {
          "indexed": false,
          "internalType": "bytes32",
          "name": "passportHash",
          "type": "bytes32"
        },
        {
          "indexed": true,
          "internalType": "address",
          "name": "issuer",
          "type": "address"
        }
      ],
      "name": "ApplicationProcessed",
      "type": "event"
    },
    {
      "anonymous": false,
      "inputs": [
        {
          "indexed": true,
          "internalType": "address",
          "name": "user",
          "type": "address"
        },
        {
          "indexed": false,
          "internalType": "bytes32[]",
          "name": "docHashes",
          "type": "bytes32[]"
        },
        {
          "indexed": true,
          "internalType": "uint256",
          "name": "applicationId",
          "type": "uint256"
        },
        {
          "indexed": false,
          "internalType": "uint256",
          "name": "timestamp",
          "type": "uint256"
        }
      ],
      "name": "ApplicationSubmitted",
      "type": "event"
    },
    {
      "anonymous": false,
      "inputs": [
        {
          "indexed": true,
          "internalType": "bytes32",
          "name": "hash",
          "type": "bytes32"
        },
        {
          "indexed": true,
          "internalType": "address",
          "name": "issuer",
          "type": "address"
        },
        {
          "indexed": true,
          "internalType": "address",
          "name": "user",
          "type": "address"
        },
        {
          "indexed": false,
          "internalType": "string",
          "name": "pType",
          "type": "string"
        },
        {
          "indexed": false,
          "internalType": "uint256",
          "name": "timestamp",
          "type": "uint256"
        }
      ],
      "name": "HashAnchored",
      "type": "event"
    },
    {
      "anonymous": false,
      "inputs": [
        {
          "indexed": true,
          "internalType": "bytes32",
          "name": "hash",
          "type": "bytes32"
        },
        {
          "indexed": true,
          "internalType": "address",
          "name": "revoker",
          "type": "address"
        },
        {
          "indexed": false,
          "internalType": "uint256",
          "name": "timestamp",
          "type": "uint256"
        }
      ],
      "name": "HashRevoked",
      "type": "event"
    },
    {
      "anonymous": false,
      "inputs": [
        {
          "indexed": true,
          "internalType": "address",
          "name": "user",
          "type": "address"
        },
        {
          "indexed": true,
          "internalType": "bytes32",
          "name": "oldHash",
          "type": "bytes32"
        },
        {
          "indexed": true,
          "internalType": "bytes32",
          "name": "newHash",
          "type": "bytes32"
        },
        {
          "indexed": false,
          "internalType": "uint256",
          "name": "timestamp",
          "type": "uint256"
        }
      ],
      "name": "HashRotated",
      "type": "event"
    },
    {
      "anonymous": false,
      "inputs": [
        {
          "indexed": true,
          "internalType": "address",
          "name": "issuer",
          "type": "address"
        }
      ],
      "name": "IssuerAdded",
      "type": "event"
    },
    {
      "anonymous": false,
      "inputs": [
        {
          "indexed": true,
          "internalType": "address",
          "name": "issuer",
          "type": "address"
        },
        {
          "indexed": false,
          "internalType": "string",
          "name": "info",
          "type": "string"
        }
      ],
      "name": "IssuerInfoSet",
      "type": "event"
    },
    {
      "anonymous": false,
      "inputs": [
        {
          "indexed": true,
          "internalType": "address",
          "name": "issuer",
          "type": "address"
        }
      ],
      "name": "IssuerRemoved",
      "type": "event"
    },
    {
      "anonymous": false,
      "inputs": [
        {
          "indexed": true,
          "internalType": "address",
          "name": "issuer",
          "type": "address"
        }
      ],
      "name": "IssuerResumed",
      "type": "event"
    },
    {
      "anonymous": false,
      "inputs": [
        {
          "indexed": true,
          "internalType": "address",
          "name": "issuer",
          "type": "address"
        }
      ],
      "name": "IssuerSuspended",
      "type": "event"
    },
    {
      "anonymous": false,
      "inputs": [
        {
          "indexed": true,
          "internalType": "address",
          "name": "verifier",
          "type": "address"
        }
      ],
      "name": "VerifierAdded",
      "type": "event"
    },
    {
      "anonymous": false,
      "inputs": [
        {
          "indexed": true,
          "internalType": "address",
          "name": "verifier",
          "type": "address"
        }
      ],
      "name": "VerifierRemoved",
      "type": "event"
    },
    {
      "inputs": [
        {
          "internalType": "address",
          "name": "issuer",
          "type": "address"
        }
      ],
      "name": "addIssuer",
      "outputs": [],
      "stateMutability": "nonpayable",
      "type": "function"
    },
    {
      "inputs": [
        {
          "internalType": "address",
          "name": "verifier",
          "type": "address"
        }
      ],
      "name": "addVerifier",
      "outputs": [],
      "stateMutability": "nonpayable",
      "type": "function"
    },
    {
      "inputs": [
        {
          "internalType": "bytes32",
          "name": "",
          "type": "bytes32"
        }
      ],
      "name": "anchoredHashes",
      "outputs": [
        {
          "internalType": "bool",
          "name": "",
          "type": "bool"
        }
      ],
      "stateMutability": "view",
      "type": "function"
    },
    {
      "inputs": [
        {
          "internalType": "address",
          "name": "",
          "type": "address"
        }
      ],
      "name": "applicationIndex",
      "outputs": [
        {
          "internalType": "uint256",
          "name": "",
          "type": "uint256"
        }
      ],
      "stateMutability": "view",
      "type": "function"
    },
    {
      "inputs": [
        {
          "internalType": "uint256",
          "name": "",
          "type": "uint256"
        }
      ],
      "name": "applications",
      "outputs": [
        {
          "internalType": "address",
          "name": "user",
          "type": "address"
        },
        {
          "internalType": "uint256",
          "name": "timestamp",
          "type": "uint256"
        },
        {
          "internalType": "bool",
          "name": "processed",
          "type": "bool"
        }
      ],
      "stateMutability": "view",
      "type": "function"
    },
    {
      "inputs": [
        {
          "internalType": "bytes32[]",
          "name": "docHashes",
          "type": "bytes32[]"
        }
      ],
      "name": "applyForPassport",
      "outputs": [],
      "stateMutability": "nonpayable",
      "type": "function"
    },
    {
      "inputs": [
        {
          "internalType": "address",
          "name": "",
          "type": "address"
        }
      ],
      "name": "authorizedIssuers",
      "outputs": [
        {
          "internalType": "bool",
          "name": "",
          "type": "bool"
        }
      ],
      "stateMutability": "view",
      "type": "function"
    },
    {
      "inputs": [
        {
          "internalType": "address",
          "name": "",
          "type": "address"
        }
      ],
      "name": "authorizedVerifiers",
      "outputs": [
        {
          "internalType": "bool",
          "name": "",
          "type": "bool"
        }
      ],
      "stateMutability": "view",
      "type": "function"
    },
    {
      "inputs": [
        {
          "internalType": "uint256",
          "name": "appId",
          "type": "uint256"
        }
      ],
      "name": "getApplication",
      "outputs": [
        {
          "internalType": "address",
          "name": "user",
          "type": "address"
        },
        {
          "internalType": "bytes32[]",
          "name": "docHashes",
          "type": "bytes32[]"
        },
        {
          "internalType": "uint256",
          "name": "timestamp",
          "type": "uint256"
        },
        {
          "internalType": "bool",
          "name": "processed",
          "type": "bool"
        }
      ],
      "stateMutability": "view",
      "type": "function"
    },
    {
      "inputs": [],
      "name": "getApplicationsCount",
      "outputs": [
        {
          "internalType": "uint256",
          "name": "",
          "type": "uint256"
        }
      ],
      "stateMutability": "view",
      "type": "function"
    },
    {
      "inputs": [],
      "name": "getLogsCount",
      "outputs": [
        {
          "internalType": "uint256",
          "name": "",
          "type": "uint256"
        }
      ],
      "stateMutability": "view",
      "type": "function"
    },
    {
      "inputs": [
        {
          "internalType": "address",
          "name": "",
          "type": "address"
        }
      ],
      "name": "hasIssued",
      "outputs": [
        {
          "internalType": "bool",
          "name": "",
          "type": "bool"
        }
      ],
      "stateMutability": "view",
      "type": "function"
    },
    {
      "inputs": [
        {
          "internalType": "bytes32",
          "name": "hash",
          "type": "bytes32"
        }
      ],
      "name": "hasRevoked",
      "outputs": [
        {
          "internalType": "bool",
          "name": "",
          "type": "bool"
        }
      ],
      "stateMutability": "view",
      "type": "function"
    },
    {
      "inputs": [
        {
          "internalType": "bytes32",
          "name": "",
          "type": "bytes32"
        }
      ],
      "name": "hashTypes",
      "outputs": [
        {
          "internalType": "string",
          "name": "",
          "type": "string"
        }
      ],
      "stateMutability": "view",
      "type": "function"
    },
    {
      "inputs": [
        {
          "internalType": "address",
          "name": "",
          "type": "address"
        }
      ],
      "name": "issuerInfo",
      "outputs": [
        {
          "internalType": "string",
          "name": "",
          "type": "string"
        }
      ],
      "stateMutability": "view",
      "type": "function"
    },
    {
      "inputs": [
        {
          "internalType": "uint256",
          "name": "",
          "type": "uint256"
        }
      ],
      "name": "logs",
      "outputs": [
        {
          "internalType": "bytes32",
          "name": "hash",
          "type": "bytes32"
        },
        {
          "internalType": "address",
          "name": "issuer",
          "type": "address"
        },
        {
          "internalType": "address",
          "name": "user",
          "type": "address"
        },
        {
          "internalType": "string",
          "name": "pType",
          "type": "string"
        },
        {
          "internalType": "uint256",
          "name": "timestamp",
          "type": "uint256"
        }
      ],
      "stateMutability": "view",
      "type": "function"
    },
    {
      "inputs": [],
      "name": "owner",
      "outputs": [
        {
          "internalType": "address",
          "name": "",
          "type": "address"
        }
      ],
      "stateMutability": "view",
      "type": "function"
    },
    {
      "inputs": [
        {
          "internalType": "uint256",
          "name": "appId",
          "type": "uint256"
        },
        {
          "internalType": "bytes32",
          "name": "passportHash",
          "type": "bytes32"
        },
        {
          "internalType": "string",
          "name": "pType",
          "type": "string"
        }
      ],
      "name": "processApplication",
      "outputs": [],
      "stateMutability": "nonpayable",
      "type": "function"
    },
    {
      "inputs": [
        {
          "internalType": "address",
          "name": "issuer",
          "type": "address"
        }
      ],
      "name": "removeIssuer",
      "outputs": [],
      "stateMutability": "nonpayable",
      "type": "function"
    },
    {
      "inputs": [
        {
          "internalType": "address",
          "name": "verifier",
          "type": "address"
        }
      ],
      "name": "removeVerifier",
      "outputs": [],
      "stateMutability": "nonpayable",
      "type": "function"
    },
    {
      "inputs": [
        {
          "internalType": "address",
          "name": "issuer",
          "type": "address"
        }
      ],
      "name": "resumeIssuer",
      "outputs": [],
      "stateMutability": "nonpayable",
      "type": "function"
    },
    {
      "inputs": [
        {
          "internalType": "bytes32",
          "name": "hash",
          "type": "bytes32"
        }
      ],
      "name": "revokeHash",
      "outputs": [],
      "stateMutability": "nonpayable",
      "type": "function"
    },
    {
      "inputs": [
        {
          "internalType": "bytes32",
          "name": "",
          "type": "bytes32"
        }
      ],
      "name": "revokedHashes",
      "outputs": [
        {
          "internalType": "bool",
          "name": "",
          "type": "bool"
        }
      ],
      "stateMutability": "view",
      "type": "function"
    },
    {
      "inputs": [
        {
          "internalType": "bytes32",
          "name": "oldHash",
          "type": "bytes32"
        },
        {
          "internalType": "bytes32",
          "name": "newHash",
          "type": "bytes32"
        }
      ],
      "name": "rotateHash",
      "outputs": [],
      "stateMutability": "nonpayable",
      "type": "function"
    },
    {
      "inputs": [
        {
          "internalType": "string",
          "name": "info",
          "type": "string"
        }
      ],
      "name": "setIssuerInfo",
      "outputs": [],
      "stateMutability": "nonpayable",
      "type": "function"
    },
    {
      "inputs": [
        {
          "internalType": "address",
          "name": "issuer",
          "type": "address"
        }
      ],
      "name": "suspendIssuer",
      "outputs": [],
      "stateMutability": "nonpayable",
      "type": "function"
    },
    {
      "inputs": [
        {
          "internalType": "address",
          "name": "",
          "type": "address"
        }
      ],
      "name": "suspendedIssuers",
      "outputs": [
        {
          "internalType": "bool",
          "name": "",
          "type": "bool"
        }
      ],
      "stateMutability": "view",
      "type": "function"
    },
    {
      "inputs": [
        {
          "internalType": "address",
          "name": "",
          "type": "address"
        }
      ],
      "name": "userHash",
      "outputs": [
        {
          "internalType": "bytes32",
          "name": "",
          "type": "bytes32"
        }
      ],
      "stateMutability": "view",
      "type": "function"
    },
    {
      "inputs": [
        {
          "internalType": "bytes32",
          "name": "hash",
          "type": "bytes32"
        }
      ],
      "name": "verifyPassport",
      "outputs": [
        {
          "internalType": "bool",
          "name": "isAnchored_",
          "type": "bool"
        },
        {
          "internalType": "bool",
          "name": "isRevoked_",
          "type": "bool"
        },
        {
          "internalType": "address",
          "name": "issuer_",
          "type": "address"
        },
        {
          "internalType": "string",
          "name": "pType_",
          "type": "string"
        },
        {
          "internalType": "uint256",
          "name": "issuedAt_",
          "type": "uint256"
        }
      ],
      "stateMutability": "view",
      "type": "function"
    }
  ],
  "bytecode": "0x608060405234801561001057600080fd5b50600080546001600160a01b0319163390811782558152600160208190526040909120805460ff19169091179055611c108061004d6000396000f3fe608060405234801561001057600080fd5b50600436106101cf5760003560e01c806390c2b17d11610104578063c65fb82d116100a2578063dfefadff11610071578063dfefadff14610472578063e79899bd146104ac578063e9e9e507146104d0578063f731fa0f146104f357600080fd5b8063c65fb82d14610431578063ca2dfd0a14610444578063cc9e300f14610457578063d29ad8731461045f57600080fd5b8063a623cedc116100de578063a623cedc146103b8578063b517f762146103d8578063b992812e146103fb578063c48788301461041e57600080fd5b806390c2b17d146103625780639a89171614610382578063a303bdb9146103a557600080fd5b80635d09d35d116101715780638388130f1161014b5780638388130f146102fe578063881b6f02146103115780638da5cb5b146103245780639000b3d61461034f57600080fd5b80635d09d35d146102d057806365bcc7c4146102e357806370de43f1146102eb57600080fd5b80631f2f4bfd116101ad5780631f2f4bfd1461026257806320694db01461028557806347bc70931461029a57806355e138fc146102ad57600080fd5b80630a6a2a59146101d45780631230af7f1461020157806312b8573c14610234575b600080fd5b6101e76101e2366004611540565b610516565b6040516101f895949392919061159f565b60405180910390f35b61022461020f3660046115e5565b60026020526000908152604090205460ff1681565b60405190151581526020016101f8565b6102546102423660046115e5565b60066020526000908152604090205481565b6040519081526020016101f8565b610275610270366004611540565b6106ec565b6040516101f89493929190611615565b6102986102933660046115e5565b61079e565b005b6102986102a83660046115e5565b610817565b6102246102bb366004611540565b60086020526000908152604090205460ff1681565b6102986102de36600461167a565b61088a565b600b54610254565b6102986102f9366004611540565b610a6e565b61029861030c366004611738565b610b74565b61029861031f3660046115e5565b610e23565b600054610337906001600160a01b031681565b6040516001600160a01b0390911681526020016101f8565b61029861035d3660046115e5565b610e99565b6103756103703660046115e5565b610f0f565b6040516101f8919061178b565b6102246103903660046115e5565b60036020526000908152604090205460ff1681565b6103756103b3366004611540565b610fa9565b6102546103c63660046115e5565b600c6020526000908152604090205481565b6102246103e6366004611540565b60096020526000908152604090205460ff1681565b6102246104093660046115e5565b60076020526000908152604090205460ff1681565b61029861042c3660046115e5565b610fc2565b61029861043f36600461179e565b611035565b6102986104523660046115e5565b6110f6565b600554610254565b61029861046d3660046117e0565b611169565b610485610480366004611540565b6113c8565b604080516001600160a01b03909416845260208401929092521515908201526060016101f8565b6104bf6104ba366004611540565b611408565b6040516101f8959493929190611802565b6102246104de366004611540565b60009081526009602052604090205460ff1690565b6102246105013660046115e5565b60016020526000908152604090205460ff1681565b3360009081526003602052604081205481908190606090829060ff166105835760405162461bcd60e51b815260206004820152601a60248201527f4e6f7420616e20617574686f72697a656420766572696669657200000000000060448201526064015b60405180910390fd5b6000868152600860209081526040808320546009835281842054600a9093529220805460ff93841698509190921695506105bc90611834565b80601f01602080910402602001604051908101604052809291908181526020018280546105e890611834565b80156106355780601f1061060a57610100808354040283529160200191610635565b820191906000526020600020905b81548152906001019060200180831161061857829003601f168201915b5050505050915060005b6005548110156106e257866005828154811061065d5761065d61186e565b906000526020600020906005020160000154036106da57600581815481106106875761068761186e565b906000526020600020906005020160010160009054906101000a90046001600160a01b03169350600581815481106106c1576106c161186e565b90600052602060002090600502016004015491506106e2565b60010161063f565b5091939590929450565b600060606000806000600b86815481106107085761070861186e565b600091825260209182902060049091020180546002820154600383015460018401805460408051828902810189019091528181529597506001600160a01b03909416959094929360ff9092169291859183018282801561078757602002820191906000526020600020905b815481526020019060010190808311610773575b505050505092509450945094509450509193509193565b6000546001600160a01b031633146107c85760405162461bcd60e51b815260040161057a90611884565b6001600160a01b0381166000818152600160208190526040808320805460ff1916909217909155517f05e7c881d716bee8cb7ed92293133ba156704252439e5c502c277448f04e20c29190a250565b6000546001600160a01b031633146108415760405162461bcd60e51b815260040161057a90611884565b6001600160a01b038116600081815260016020526040808220805460ff19169055517faf66545c919a3be306ee446d8f42a9558b5b022620df880517bc9593ec0f2d529190a250565b806108cf5760405162461bcd60e51b8152602060048201526015602482015274139bc8191bd8dd5b595b9d1cc81c1c9bdd9a591959605a1b604482015260640161057a565b336000908152600c60205260409020541561091e5760405162461bcd60e51b815260206004820152600f60248201526e105b1c9958591e48185c1c1b1a5959608a1b604482015260640161057a565b600b6040518060800160405280336001600160a01b03168152602001848480806020026020016040519081016040528093929190818152602001838360200280828437600092018290525093855250504260208085019190915260409093018290525083546001808201865594825290829020835160049092020180546001600160a01b0319166001600160a01b03909216919091178155828201518051939491936109d2939285019291909101906114e0565b50604082015160028201556060909101516003909101805460ff1916911515919091179055600b54600090610a09906001906118be565b9050610a168160016118d7565b336000818152600c6020526040908190209290925590518291907fb1da2ec901fe9fd1e6459a452f1d38e96219fce82d3aa8fa943db2204bc19dc990610a61908790879042906118ea565b60405180910390a3505050565b3360009081526001602052604090205460ff16610a9d5760405162461bcd60e51b815260040161057a90611928565b3360009081526002602052604090205460ff1615610acd5760405162461bcd60e51b815260040161057a9061195f565b60008181526008602052604090205460ff16610b1a5760405162461bcd60e51b815260206004820152600c60248201526b139bdd08185b98da1bdc995960a21b604482015260640161057a565b60008181526009602052604090819020805460ff1916600117905551339082907f81b6cc0587b2b6ef7c328160b513c7aaba1f53c52f5e823a62aeb5523bfc623c90610b699042815260200190565b60405180910390a350565b3360009081526001602052604090205460ff16610ba35760405162461bcd60e51b815260040161057a90611928565b3360009081526002602052604090205460ff1615610bd35760405162461bcd60e51b815260040161057a9061195f565b6000600b8581548110610be857610be861186e565b60009182526020909120600490910201600381015490915060ff1615610c445760405162461bcd60e51b8152602060048201526011602482015270105b1c9958591e481c1c9bd8d95cdcd959607a1b604482015260640161057a565b600381018054600160ff1991821681179092556000868152600860209081526040808320805485168617905585546001600160a01b0390811684526007835281842080549095169095179093558454909316815260068352818120879055868152600a9092529020610cb78385836119f0565b506040805160a0810182528581523360208083019190915283546001600160a01b0316828401528251601f8601829004820281018201909352848352600592606083019187908790819084018382808284376000920182905250938552505042602093840152508354600181810186559482529082902083516005909202019081559082015192810180546001600160a01b039485166001600160a01b03199182161790915560408301516002830180549190951691161790925560608101519091906003820190610d899082611ab1565b506080919091015160049091015580546040516001600160a01b0390911690339086907fd046f00d0ab23d35ef4d14e3e2eeecd64ab604ab566c71b02a89ea816467d4d890610ddd90889088904290611b9a565b60405180910390a4604051848152339086907f260f816b6aa32c29747d337887b7fa904d031cd45fd7b933d9d8bb92bdbc18be9060200160405180910390a35050505050565b6000546001600160a01b03163314610e4d5760405162461bcd60e51b815260040161057a90611884565b6001600160a01b038116600081815260026020526040808220805460ff19166001179055517f0c0223513169ae4317ba95b02f37c5f1c0506475f1b46cdcfd29bf96b0f0c1139190a250565b6000546001600160a01b03163314610ec35760405162461bcd60e51b815260040161057a90611884565b6001600160a01b038116600081815260036020526040808220805460ff19166001179055517f6d05492139c5ea989514a5d2150c028041e5c087e2a39967f67dc7d2655adb819190a250565b60046020526000908152604090208054610f2890611834565b80601f0160208091040260200160405190810160405280929190818152602001828054610f5490611834565b8015610fa15780601f10610f7657610100808354040283529160200191610fa1565b820191906000526020600020905b815481529060010190602001808311610f8457829003601f168201915b505050505081565b600a6020526000908152604090208054610f2890611834565b6000546001600160a01b03163314610fec5760405162461bcd60e51b815260040161057a90611884565b6001600160a01b038116600081815260026020526040808220805460ff19169055517f747ac8db7592dd99195efe461d53a9cc1b9726f1372636b6d7c89342328fc3119190a250565b3360009081526001602052604090205460ff166110645760405162461bcd60e51b815260040161057a90611928565b3360009081526002602052604090205460ff16156110945760405162461bcd60e51b815260040161057a9061195f565b3360009081526004602052604090206110ae8284836119f0565b50336001600160a01b03167f23fc092b86eaa9242bf6d69451f460a293efca8bc7ae85ecd4e77e9190282f0783836040516110ea929190611bbe565b60405180910390a25050565b6000546001600160a01b031633146111205760405162461bcd60e51b815260040161057a90611884565b6001600160a01b038116600081815260036020526040808220805460ff19169055517f44a3cd4eb5cc5748f6169df057b1cb2ae4c383e87cd94663c430e095d4cba4249190a250565b3360009081526006602052604090205482146111bb5760405162461bcd60e51b815260206004820152601160248201527009ed8c840d0c2e6d040dad2e6dac2e8c6d607b1b604482015260640161057a565b60008281526008602052604090205460ff1661120c5760405162461bcd60e51b815260206004820152601060248201526f13db19081b9bdd08185b98da1bdc995960821b604482015260640161057a565b6000828152600860209081526040808320805460ff19908116909155848452818420805490911660011790553380845260068352818420859055815160a08101835285815280840182905280830191909152858452600a909252909120805460059291606083019161127d90611834565b80601f01602080910402602001604051908101604052809291908181526020018280546112a990611834565b80156112f65780601f106112cb576101008083540402835291602001916112f6565b820191906000526020600020905b8154815290600101906020018083116112d957829003601f168201915b50505091835250504260209182015282546001818101855560009485529382902083516005909202019081559082015192810180546001600160a01b039485166001600160a01b031991821617909155604083015160028301805491909516911617909255606081015190919060038201906113729082611ab1565b506080820151816004015550508082336001600160a01b03167fae388b857d17543bc57f42689bbaa266e8683dd928401b622ea3fb4d75252a05426040516113bc91815260200190565b60405180910390a45050565b600b81815481106113d857600080fd5b60009182526020909120600490910201805460028201546003909201546001600160a01b03909116925060ff1683565b6005818154811061141857600080fd5b600091825260209091206005909102018054600182015460028301546003840180549395506001600160a01b0392831694929091169261145790611834565b80601f016020809104026020016040519081016040528092919081815260200182805461148390611834565b80156114d05780601f106114a5576101008083540402835291602001916114d0565b820191906000526020600020905b8154815290600101906020018083116114b357829003601f168201915b5050505050908060040154905085565b82805482825590600052602060002090810192821561151b579160200282015b8281111561151b578251825591602001919060010190611500565b5061152792915061152b565b5090565b5b80821115611527576000815560010161152c565b60006020828403121561155257600080fd5b5035919050565b6000815180845260005b8181101561157f57602081850181015186830182015201611563565b506000602082860101526020601f19601f83011685010191505092915050565b851515815284151560208201526001600160a01b038416604082015260a0606082018190526000906115d390830185611559565b90508260808301529695505050505050565b6000602082840312156115f757600080fd5b81356001600160a01b038116811461160e57600080fd5b9392505050565b6001600160a01b0385168152608060208083018290528551918301829052600091868201919060a0850190845b8181101561165e57845183529383019391830191600101611642565b5050604085019690965250505090151560609091015292915050565b6000806020838503121561168d57600080fd5b823567ffffffffffffffff808211156116a557600080fd5b818501915085601f8301126116b957600080fd5b8135818111156116c857600080fd5b8660208260051b85010111156116dd57600080fd5b60209290920196919550909350505050565b60008083601f84011261170157600080fd5b50813567ffffffffffffffff81111561171957600080fd5b60208301915083602082850101111561173157600080fd5b9250929050565b6000806000806060858703121561174e57600080fd5b8435935060208501359250604085013567ffffffffffffffff81111561177357600080fd5b61177f878288016116ef565b95989497509550505050565b60208152600061160e6020830184611559565b600080602083850312156117b157600080fd5b823567ffffffffffffffff8111156117c857600080fd5b6117d4858286016116ef565b90969095509350505050565b600080604083850312156117f357600080fd5b50508035926020909101359150565b8581526001600160a01b0385811660208301528416604082015260a0606082018190526000906115d390830185611559565b600181811c9082168061184857607f821691505b60208210810361186857634e487b7160e01b600052602260045260246000fd5b50919050565b634e487b7160e01b600052603260045260246000fd5b6020808252600a908201526927b7363c9037bbb732b960b11b604082015260600190565b634e487b7160e01b600052601160045260246000fd5b818103818111156118d1576118d16118a8565b92915050565b808201808211156118d1576118d16118a8565b6040808252810183905260006001600160fb1b0384111561190a57600080fd5b8360051b808660608501376020830193909352500160600192915050565b60208082526018908201527f4e6f7420616e20617574686f72697a6564206973737565720000000000000000604082015260600190565b60208082526010908201526f125cdcdd595c881cdd5cdc195b99195960821b604082015260600190565b634e487b7160e01b600052604160045260246000fd5b601f8211156119eb576000816000526020600020601f850160051c810160208610156119c85750805b601f850160051c820191505b818110156119e7578281556001016119d4565b5050505b505050565b67ffffffffffffffff831115611a0857611a08611989565b611a1c83611a168354611834565b8361199f565b6000601f841160018114611a505760008515611a385750838201355b600019600387901b1c1916600186901b178355611aaa565b600083815260209020601f19861690835b82811015611a815786850135825560209485019460019092019101611a61565b5086821015611a9e5760001960f88860031b161c19848701351681555b505060018560011b0183555b5050505050565b815167ffffffffffffffff811115611acb57611acb611989565b611adf81611ad98454611834565b8461199f565b602080601f831160018114611b145760008415611afc5750858301515b600019600386901b1c1916600185901b1785556119e7565b600085815260208120601f198616915b82811015611b4357888601518255948401946001909101908401611b24565b5085821015611b615787850151600019600388901b60f8161c191681555b5050505050600190811b01905550565b81835281816020850137506000828201602090810191909152601f909101601f19169091010190565b604081526000611bae604083018587611b71565b9050826020830152949350505050565b602081526000611bd2602083018486611b71565b94935050505056fea264697066735822122017e05889c88c5f09c48834df9bfca6fc494fc7eae2e08a34699ecf62650bb8e764736f6c63430008170033",
  "linkReferences": {},
  "deployedLinkReferences": {}
}