{
  "_format": "hh-sol-artifact-1",
  "contractName": "Anchor",
  "sourceName": "contracts/anchorFinal3.sol",
  "abi": [
    {
      "inputs": [],
      "stateMutability": "nonpayable",
      "type": "constructor"
    },
    {
      "anonymous": false,
      "inputs": [
        {
          "indexed": true,
          "internalType": "uint256",
          "name": "appId",
          "type": "uint256"
        },
        {
          "indexed": false,
          "internalType": "bytes32",
          "name": "passportHash",
          "type": "bytes32"
        },
        {
          "indexed": true,
          "internalType": "address",
          "name": "issuer",
          "type": "address"
        }
      ],
      "name": "ApplicationProcessed",
      "type": "event"
    },
    {
      "anonymous": false,
      "inputs": [
        {
          "indexed": true,
          "internalType": "address",
          "name": "user",
          "type": "address"
        },
        {
          "indexed": false,
          "internalType": "string[]",
          "name": "docCids",
          "type": "string[]"
        },
        {
          "indexed": true,
          "internalType": "uint256",
          "name": "applicationId",
          "type": "uint256"
        },
        {
          "indexed": false,
          "internalType": "uint256",
          "name": "timestamp",
          "type": "uint256"
        }
      ],
      "name": "ApplicationSubmitted",
      "type": "event"
    },
    {
      "anonymous": false,
      "inputs": [
        {
          "indexed": true,
          "internalType": "bytes32",
          "name": "hash",
          "type": "bytes32"
        },
        {
          "indexed": true,
          "internalType": "address",
          "name": "issuer",
          "type": "address"
        },
        {
          "indexed": true,
          "internalType": "address",
          "name": "user",
          "type": "address"
        },
        {
          "indexed": false,
          "internalType": "string",
          "name": "pType",
          "type": "string"
        },
        {
          "indexed": false,
          "internalType": "uint256",
          "name": "timestamp",
          "type": "uint256"
        }
      ],
      "name": "HashAnchored",
      "type": "event"
    },
    {
      "anonymous": false,
      "inputs": [
        {
          "indexed": true,
          "internalType": "bytes32",
          "name": "hash",
          "type": "bytes32"
        },
        {
          "indexed": true,
          "internalType": "address",
          "name": "revoker",
          "type": "address"
        },
        {
          "indexed": false,
          "internalType": "uint256",
          "name": "timestamp",
          "type": "uint256"
        }
      ],
      "name": "HashRevoked",
      "type": "event"
    },
    {
      "anonymous": false,
      "inputs": [
        {
          "indexed": true,
          "internalType": "address",
          "name": "user",
          "type": "address"
        },
        {
          "indexed": true,
          "internalType": "bytes32",
          "name": "oldHash",
          "type": "bytes32"
        },
        {
          "indexed": true,
          "internalType": "bytes32",
          "name": "newHash",
          "type": "bytes32"
        },
        {
          "indexed": false,
          "internalType": "uint256",
          "name": "timestamp",
          "type": "uint256"
        }
      ],
      "name": "HashRotated",
      "type": "event"
    },
    {
      "anonymous": false,
      "inputs": [
        {
          "indexed": true,
          "internalType": "address",
          "name": "issuer",
          "type": "address"
        }
      ],
      "name": "IssuerAdded",
      "type": "event"
    },
    {
      "anonymous": false,
      "inputs": [
        {
          "indexed": true,
          "internalType": "address",
          "name": "issuer",
          "type": "address"
        },
        {
          "indexed": false,
          "internalType": "string",
          "name": "info",
          "type": "string"
        }
      ],
      "name": "IssuerInfoSet",
      "type": "event"
    },
    {
      "anonymous": false,
      "inputs": [
        {
          "indexed": true,
          "internalType": "address",
          "name": "issuer",
          "type": "address"
        }
      ],
      "name": "IssuerRemoved",
      "type": "event"
    },
    {
      "anonymous": false,
      "inputs": [
        {
          "indexed": true,
          "internalType": "address",
          "name": "issuer",
          "type": "address"
        }
      ],
      "name": "IssuerResumed",
      "type": "event"
    },
    {
      "anonymous": false,
      "inputs": [
        {
          "indexed": true,
          "internalType": "address",
          "name": "issuer",
          "type": "address"
        }
      ],
      "name": "IssuerSuspended",
      "type": "event"
    },
    {
      "anonymous": false,
      "inputs": [
        {
          "indexed": true,
          "internalType": "address",
          "name": "verifier",
          "type": "address"
        }
      ],
      "name": "VerifierAdded",
      "type": "event"
    },
    {
      "anonymous": false,
      "inputs": [
        {
          "indexed": true,
          "internalType": "address",
          "name": "verifier",
          "type": "address"
        }
      ],
      "name": "VerifierRemoved",
      "type": "event"
    },
    {
      "inputs": [
        {
          "internalType": "address",
          "name": "issuer",
          "type": "address"
        }
      ],
      "name": "addIssuer",
      "outputs": [],
      "stateMutability": "nonpayable",
      "type": "function"
    },
    {
      "inputs": [
        {
          "internalType": "address",
          "name": "verifier",
          "type": "address"
        }
      ],
      "name": "addVerifier",
      "outputs": [],
      "stateMutability": "nonpayable",
      "type": "function"
    },
    {
      "inputs": [
        {
          "internalType": "bytes32",
          "name": "",
          "type": "bytes32"
        }
      ],
      "name": "anchoredHashes",
      "outputs": [
        {
          "internalType": "bool",
          "name": "",
          "type": "bool"
        }
      ],
      "stateMutability": "view",
      "type": "function"
    },
    {
      "inputs": [
        {
          "internalType": "address",
          "name": "",
          "type": "address"
        }
      ],
      "name": "applicationIndex",
      "outputs": [
        {
          "internalType": "uint256",
          "name": "",
          "type": "uint256"
        }
      ],
      "stateMutability": "view",
      "type": "function"
    },
    {
      "inputs": [
        {
          "internalType": "uint256",
          "name": "",
          "type": "uint256"
        }
      ],
      "name": "applications",
      "outputs": [
        {
          "internalType": "address",
          "name": "user",
          "type": "address"
        },
        {
          "internalType": "uint256",
          "name": "timestamp",
          "type": "uint256"
        },
        {
          "internalType": "bool",
          "name": "processed",
          "type": "bool"
        }
      ],
      "stateMutability": "view",
      "type": "function"
    },
    {
      "inputs": [
        {
          "internalType": "string[]",
          "name": "docCids",
          "type": "string[]"
        }
      ],
      "name": "applyForPassport",
      "outputs": [],
      "stateMutability": "nonpayable",
      "type": "function"
    },
    {
      "inputs": [
        {
          "internalType": "address",
          "name": "",
          "type": "address"
        }
      ],
      "name": "authorizedIssuers",
      "outputs": [
        {
          "internalType": "bool",
          "name": "",
          "type": "bool"
        }
      ],
      "stateMutability": "view",
      "type": "function"
    },
    {
      "inputs": [
        {
          "internalType": "address",
          "name": "",
          "type": "address"
        }
      ],
      "name": "authorizedVerifiers",
      "outputs": [
        {
          "internalType": "bool",
          "name": "",
          "type": "bool"
        }
      ],
      "stateMutability": "view",
      "type": "function"
    },
    {
      "inputs": [
        {
          "internalType": "uint256",
          "name": "appId",
          "type": "uint256"
        }
      ],
      "name": "getApplication",
      "outputs": [
        {
          "internalType": "address",
          "name": "user",
          "type": "address"
        },
        {
          "internalType": "string[]",
          "name": "docCids",
          "type": "string[]"
        },
        {
          "internalType": "uint256",
          "name": "timestamp",
          "type": "uint256"
        },
        {
          "internalType": "bool",
          "name": "processed",
          "type": "bool"
        }
      ],
      "stateMutability": "view",
      "type": "function"
    },
    {
      "inputs": [],
      "name": "getApplicationsCount",
      "outputs": [
        {
          "internalType": "uint256",
          "name": "",
          "type": "uint256"
        }
      ],
      "stateMutability": "view",
      "type": "function"
    },
    {
      "inputs": [],
      "name": "getLogsCount",
      "outputs": [
        {
          "internalType": "uint256",
          "name": "",
          "type": "uint256"
        }
      ],
      "stateMutability": "view",
      "type": "function"
    },
    {
      "inputs": [
        {
          "internalType": "address",
          "name": "",
          "type": "address"
        }
      ],
      "name": "hasIssued",
      "outputs": [
        {
          "internalType": "bool",
          "name": "",
          "type": "bool"
        }
      ],
      "stateMutability": "view",
      "type": "function"
    },
    {
      "inputs": [
        {
          "internalType": "bytes32",
          "name": "hash",
          "type": "bytes32"
        }
      ],
      "name": "hasRevoked",
      "outputs": [
        {
          "internalType": "bool",
          "name": "",
          "type": "bool"
        }
      ],
      "stateMutability": "view",
      "type": "function"
    },
    {
      "inputs": [
        {
          "internalType": "bytes32",
          "name": "",
          "type": "bytes32"
        }
      ],
      "name": "hashTypes",
      "outputs": [
        {
          "internalType": "string",
          "name": "",
          "type": "string"
        }
      ],
      "stateMutability": "view",
      "type": "function"
    },
    {
      "inputs": [
        {
          "internalType": "address",
          "name": "",
          "type": "address"
        }
      ],
      "name": "issuerInfo",
      "outputs": [
        {
          "internalType": "string",
          "name": "",
          "type": "string"
        }
      ],
      "stateMutability": "view",
      "type": "function"
    },
    {
      "inputs": [
        {
          "internalType": "uint256",
          "name": "",
          "type": "uint256"
        }
      ],
      "name": "logs",
      "outputs": [
        {
          "internalType": "bytes32",
          "name": "hash",
          "type": "bytes32"
        },
        {
          "internalType": "address",
          "name": "issuer",
          "type": "address"
        },
        {
          "internalType": "address",
          "name": "user",
          "type": "address"
        },
        {
          "internalType": "string",
          "name": "pType",
          "type": "string"
        },
        {
          "internalType": "uint256",
          "name": "timestamp",
          "type": "uint256"
        }
      ],
      "stateMutability": "view",
      "type": "function"
    },
    {
      "inputs": [],
      "name": "owner",
      "outputs": [
        {
          "internalType": "address",
          "name": "",
          "type": "address"
        }
      ],
      "stateMutability": "view",
      "type": "function"
    },
    {
      "inputs": [
        {
          "internalType": "uint256",
          "name": "appId",
          "type": "uint256"
        },
        {
          "internalType": "bytes32",
          "name": "passportHash",
          "type": "bytes32"
        },
        {
          "internalType": "string",
          "name": "pType",
          "type": "string"
        }
      ],
      "name": "processApplication",
      "outputs": [],
      "stateMutability": "nonpayable",
      "type": "function"
    },
    {
      "inputs": [
        {
          "internalType": "address",
          "name": "issuer",
          "type": "address"
        }
      ],
      "name": "removeIssuer",
      "outputs": [],
      "stateMutability": "nonpayable",
      "type": "function"
    },
    {
      "inputs": [
        {
          "internalType": "address",
          "name": "verifier",
          "type": "address"
        }
      ],
      "name": "removeVerifier",
      "outputs": [],
      "stateMutability": "nonpayable",
      "type": "function"
    },
    {
      "inputs": [
        {
          "internalType": "address",
          "name": "issuer",
          "type": "address"
        }
      ],
      "name": "resumeIssuer",
      "outputs": [],
      "stateMutability": "nonpayable",
      "type": "function"
    },
    {
      "inputs": [
        {
          "internalType": "bytes32",
          "name": "hash",
          "type": "bytes32"
        }
      ],
      "name": "revokeHash",
      "outputs": [],
      "stateMutability": "nonpayable",
      "type": "function"
    },
    {
      "inputs": [
        {
          "internalType": "bytes32",
          "name": "",
          "type": "bytes32"
        }
      ],
      "name": "revokedHashes",
      "outputs": [
        {
          "internalType": "bool",
          "name": "",
          "type": "bool"
        }
      ],
      "stateMutability": "view",
      "type": "function"
    },
    {
      "inputs": [
        {
          "internalType": "bytes32",
          "name": "oldHash",
          "type": "bytes32"
        },
        {
          "internalType": "bytes32",
          "name": "newHash",
          "type": "bytes32"
        }
      ],
      "name": "rotateHash",
      "outputs": [],
      "stateMutability": "nonpayable",
      "type": "function"
    },
    {
      "inputs": [
        {
          "internalType": "string",
          "name": "info",
          "type": "string"
        }
      ],
      "name": "setIssuerInfo",
      "outputs": [],
      "stateMutability": "nonpayable",
      "type": "function"
    },
    {
      "inputs": [
        {
          "internalType": "address",
          "name": "issuer",
          "type": "address"
        }
      ],
      "name": "suspendIssuer",
      "outputs": [],
      "stateMutability": "nonpayable",
      "type": "function"
    },
    {
      "inputs": [
        {
          "internalType": "address",
          "name": "",
          "type": "address"
        }
      ],
      "name": "suspendedIssuers",
      "outputs": [
        {
          "internalType": "bool",
          "name": "",
          "type": "bool"
        }
      ],
      "stateMutability": "view",
      "type": "function"
    },
    {
      "inputs": [
        {
          "internalType": "address",
          "name": "",
          "type": "address"
        }
      ],
      "name": "userHash",
      "outputs": [
        {
          "internalType": "bytes32",
          "name": "",
          "type": "bytes32"
        }
      ],
      "stateMutability": "view",
      "type": "function"
    },
    {
      "inputs": [
        {
          "internalType": "bytes32",
          "name": "hash",
          "type": "bytes32"
        }
      ],
      "name": "verifyPassport",
      "outputs": [
        {
          "internalType": "bool",
          "name": "isAnchored_",
          "type": "bool"
        },
        {
          "internalType": "bool",
          "name": "isRevoked_",
          "type": "bool"
        },
        {
          "internalType": "address",
          "name": "issuer_",
          "type": "address"
        },
        {
          "internalType": "string",
          "name": "pType_",
          "type": "string"
        },
        {
          "internalType": "uint256",
          "name": "issuedAt_",
          "type": "uint256"
        }
      ],
      "stateMutability": "view",
      "type": "function"
    }
  ],
  "bytecode": "0x608060405234801561001057600080fd5b50600080546001600160a01b0319163390811782558152600160208190526040909120805460ff19169091179055611e618061004d6000396000f3fe608060405234801561001057600080fd5b50600436106101cf5760003560e01c806390c2b17d11610104578063c65fb82d116100a2578063dfefadff11610071578063dfefadff14610472578063e79899bd146104ac578063e9e9e507146104d0578063f731fa0f146104f357600080fd5b8063c65fb82d14610431578063ca2dfd0a14610444578063cc9e300f14610457578063d29ad8731461045f57600080fd5b8063a623cedc116100de578063a623cedc146103b8578063b517f762146103d8578063b992812e146103fb578063c48788301461041e57600080fd5b806390c2b17d146103625780639a89171614610382578063a303bdb9146103a557600080fd5b80635f752d02116101715780638388130f1161014b5780638388130f146102fe578063881b6f02146103115780638da5cb5b146103245780639000b3d61461034f57600080fd5b80635f752d02146102d057806365bcc7c4146102e357806370de43f1146102eb57600080fd5b80631f2f4bfd116101ad5780631f2f4bfd1461026257806320694db01461028557806347bc70931461029a57806355e138fc146102ad57600080fd5b80630a6a2a59146101d45780631230af7f1461020157806312b8573c14610234575b600080fd5b6101e76101e2366004611606565b610516565b6040516101f8959493929190611665565b60405180910390f35b61022461020f3660046116ab565b60026020526000908152604090205460ff1681565b60405190151581526020016101f8565b6102546102423660046116ab565b60066020526000908152604090205481565b6040519081526020016101f8565b610275610270366004611606565b6106ec565b6040516101f894939291906116db565b6102986102933660046116ab565b61082e565b005b6102986102a83660046116ab565b6108a7565b6102246102bb366004611606565b60086020526000908152604090205460ff1681565b6102986102de36600461175e565b61091a565b600b54610254565b6102986102f9366004611606565b610acf565b61029861030c36600461181c565b610bd5565b61029861031f3660046116ab565b610e84565b600054610337906001600160a01b031681565b6040516001600160a01b0390911681526020016101f8565b61029861035d3660046116ab565b610efa565b6103756103703660046116ab565b610f70565b6040516101f8919061186f565b6102246103903660046116ab565b60036020526000908152604090205460ff1681565b6103756103b3366004611606565b61100a565b6102546103c63660046116ab565b600c6020526000908152604090205481565b6102246103e6366004611606565b60096020526000908152604090205460ff1681565b6102246104093660046116ab565b60076020526000908152604090205460ff1681565b61029861042c3660046116ab565b611023565b61029861043f366004611882565b611096565b6102986104523660046116ab565b611157565b600554610254565b61029861046d3660046118c4565b6111ca565b610485610480366004611606565b611429565b604080516001600160a01b03909416845260208401929092521515908201526060016101f8565b6104bf6104ba366004611606565b611469565b6040516101f89594939291906118e6565b6102246104de366004611606565b60009081526009602052604090205460ff1690565b6102246105013660046116ab565b60016020526000908152604090205460ff1681565b3360009081526003602052604081205481908190606090829060ff166105835760405162461bcd60e51b815260206004820152601a60248201527f4e6f7420616e20617574686f72697a656420766572696669657200000000000060448201526064015b60405180910390fd5b6000868152600860209081526040808320546009835281842054600a9093529220805460ff93841698509190921695506105bc90611918565b80601f01602080910402602001604051908101604052809291908181526020018280546105e890611918565b80156106355780601f1061060a57610100808354040283529160200191610635565b820191906000526020600020905b81548152906001019060200180831161061857829003601f168201915b5050505050915060005b6005548110156106e257866005828154811061065d5761065d611952565b906000526020600020906005020160000154036106da576005818154811061068757610687611952565b906000526020600020906005020160010160009054906101000a90046001600160a01b03169350600581815481106106c1576106c1611952565b90600052602060002090600502016004015491506106e2565b60010161063f565b5091939590929450565b600060606000806000600b868154811061070857610708611952565b906000526020600020906004020190508060000160009054906101000a90046001600160a01b03168160010182600201548360030160009054906101000a900460ff1682805480602002602001604051908101604052809291908181526020016000905b8282101561081857838290600052602060002001805461078b90611918565b80601f01602080910402602001604051908101604052809291908181526020018280546107b790611918565b80156108045780601f106107d957610100808354040283529160200191610804565b820191906000526020600020905b8154815290600101906020018083116107e757829003601f168201915b50505050508152602001906001019061076c565b5050505092509450945094509450509193509193565b6000546001600160a01b031633146108585760405162461bcd60e51b815260040161057a90611968565b6001600160a01b0381166000818152600160208190526040808320805460ff1916909217909155517f05e7c881d716bee8cb7ed92293133ba156704252439e5c502c277448f04e20c29190a250565b6000546001600160a01b031633146108d15760405162461bcd60e51b815260040161057a90611968565b6001600160a01b038116600081815260016020526040808220805460ff19169055517faf66545c919a3be306ee446d8f42a9558b5b022620df880517bc9593ec0f2d529190a250565b8061095f5760405162461bcd60e51b8152602060048201526015602482015274139bc8191bd8dd5b595b9d1cc81c1c9bdd9a591959605a1b604482015260640161057a565b336000908152600c6020526040902054156109ae5760405162461bcd60e51b815260206004820152600f60248201526e105b1c9958591e48185c1c1b1a5959608a1b604482015260640161057a565b6040805160808101909152338152600b90602081016109cd84866119d3565b8152426020808301919091526000604090920182905283546001808201865594835291819020835160049093020180546001600160a01b0319166001600160a01b0390931692909217825582810151805193949293610a33938501929190910190611541565b50604082015160028201556060909101516003909101805460ff1916911515919091179055600b54600090610a6a90600190611abe565b9050610a77816001611ad7565b336000818152600c6020526040908190209290925590518291907fa533261ce9be87a2c6be4c5a76e81d62097ea4fee9079e40e933e87ab8be3b6790610ac290879087904290611b13565b60405180910390a3505050565b3360009081526001602052604090205460ff16610afe5760405162461bcd60e51b815260040161057a90611bb8565b3360009081526002602052604090205460ff1615610b2e5760405162461bcd60e51b815260040161057a90611bef565b60008181526008602052604090205460ff16610b7b5760405162461bcd60e51b815260206004820152600c60248201526b139bdd08185b98da1bdc995960a21b604482015260640161057a565b60008181526009602052604090819020805460ff1916600117905551339082907f81b6cc0587b2b6ef7c328160b513c7aaba1f53c52f5e823a62aeb5523bfc623c90610bca9042815260200190565b60405180910390a350565b3360009081526001602052604090205460ff16610c045760405162461bcd60e51b815260040161057a90611bb8565b3360009081526002602052604090205460ff1615610c345760405162461bcd60e51b815260040161057a90611bef565b6000600b8581548110610c4957610c49611952565b60009182526020909120600490910201600381015490915060ff1615610ca55760405162461bcd60e51b8152602060048201526011602482015270105b1c9958591e481c1c9bd8d95cdcd959607a1b604482015260640161057a565b600381018054600160ff1991821681179092556000868152600860209081526040808320805485168617905585546001600160a01b0390811684526007835281842080549095169095179093558454909316815260068352818120879055868152600a9092529020610d18838583611c6a565b506040805160a0810182528581523360208083019190915283546001600160a01b0316828401528251601f8601829004820281018201909352848352600592606083019187908790819084018382808284376000920182905250938552505042602093840152508354600181810186559482529082902083516005909202019081559082015192810180546001600160a01b039485166001600160a01b03199182161790915560408301516002830180549190951691161790925560608101519091906003820190610dea9082611d2b565b506080919091015160049091015580546040516001600160a01b0390911690339086907fd046f00d0ab23d35ef4d14e3e2eeecd64ab604ab566c71b02a89ea816467d4d890610e3e90889088904290611deb565b60405180910390a4604051848152339086907f260f816b6aa32c29747d337887b7fa904d031cd45fd7b933d9d8bb92bdbc18be9060200160405180910390a35050505050565b6000546001600160a01b03163314610eae5760405162461bcd60e51b815260040161057a90611968565b6001600160a01b038116600081815260026020526040808220805460ff19166001179055517f0c0223513169ae4317ba95b02f37c5f1c0506475f1b46cdcfd29bf96b0f0c1139190a250565b6000546001600160a01b03163314610f245760405162461bcd60e51b815260040161057a90611968565b6001600160a01b038116600081815260036020526040808220805460ff19166001179055517f6d05492139c5ea989514a5d2150c028041e5c087e2a39967f67dc7d2655adb819190a250565b60046020526000908152604090208054610f8990611918565b80601f0160208091040260200160405190810160405280929190818152602001828054610fb590611918565b80156110025780601f10610fd757610100808354040283529160200191611002565b820191906000526020600020905b815481529060010190602001808311610fe557829003601f168201915b505050505081565b600a6020526000908152604090208054610f8990611918565b6000546001600160a01b0316331461104d5760405162461bcd60e51b815260040161057a90611968565b6001600160a01b038116600081815260026020526040808220805460ff19169055517f747ac8db7592dd99195efe461d53a9cc1b9726f1372636b6d7c89342328fc3119190a250565b3360009081526001602052604090205460ff166110c55760405162461bcd60e51b815260040161057a90611bb8565b3360009081526002602052604090205460ff16156110f55760405162461bcd60e51b815260040161057a90611bef565b33600090815260046020526040902061110f828483611c6a565b50336001600160a01b03167f23fc092b86eaa9242bf6d69451f460a293efca8bc7ae85ecd4e77e9190282f07838360405161114b929190611e0f565b60405180910390a25050565b6000546001600160a01b031633146111815760405162461bcd60e51b815260040161057a90611968565b6001600160a01b038116600081815260036020526040808220805460ff19169055517f44a3cd4eb5cc5748f6169df057b1cb2ae4c383e87cd94663c430e095d4cba4249190a250565b33600090815260066020526040902054821461121c5760405162461bcd60e51b815260206004820152601160248201527009ed8c840d0c2e6d040dad2e6dac2e8c6d607b1b604482015260640161057a565b60008281526008602052604090205460ff1661126d5760405162461bcd60e51b815260206004820152601060248201526f13db19081b9bdd08185b98da1bdc995960821b604482015260640161057a565b6000828152600860209081526040808320805460ff19908116909155848452818420805490911660011790553380845260068352818420859055815160a08101835285815280840182905280830191909152858452600a90925290912080546005929160608301916112de90611918565b80601f016020809104026020016040519081016040528092919081815260200182805461130a90611918565b80156113575780601f1061132c57610100808354040283529160200191611357565b820191906000526020600020905b81548152906001019060200180831161133a57829003601f168201915b50505091835250504260209182015282546001818101855560009485529382902083516005909202019081559082015192810180546001600160a01b039485166001600160a01b031991821617909155604083015160028301805491909516911617909255606081015190919060038201906113d39082611d2b565b506080820151816004015550508082336001600160a01b03167fae388b857d17543bc57f42689bbaa266e8683dd928401b622ea3fb4d75252a054260405161141d91815260200190565b60405180910390a45050565b600b818154811061143957600080fd5b60009182526020909120600490910201805460028201546003909201546001600160a01b03909116925060ff1683565b6005818154811061147957600080fd5b600091825260209091206005909102018054600182015460028301546003840180549395506001600160a01b039283169492909116926114b890611918565b80601f01602080910402602001604051908101604052809291908181526020018280546114e490611918565b80156115315780601f1061150657610100808354040283529160200191611531565b820191906000526020600020905b81548152906001019060200180831161151457829003601f168201915b5050505050908060040154905085565b828054828255906000526020600020908101928215611587579160200282015b8281111561158757825182906115779082611d2b565b5091602001919060010190611561565b50611593929150611597565b5090565b808211156115935760006115ab82826115b4565b50600101611597565b5080546115c090611918565b6000825580601f106115d0575050565b601f0160209004906000526020600020908101906115ee91906115f1565b50565b5b8082111561159357600081556001016115f2565b60006020828403121561161857600080fd5b5035919050565b6000815180845260005b8181101561164557602081850181015186830182015201611629565b506000602082860101526020601f19601f83011685010191505092915050565b851515815284151560208201526001600160a01b038416604082015260a0606082018190526000906116999083018561161f565b90508260808301529695505050505050565b6000602082840312156116bd57600080fd5b81356001600160a01b03811681146116d457600080fd5b9392505050565b60006080820160018060a01b038716835260206080602085015281875180845260a08601915060a08160051b87010193506020890160005b8281101561174157609f1988870301845261172f86835161161f565b95509284019290840190600101611713565b505050505060408301949094525090151560609091015292915050565b6000806020838503121561177157600080fd5b823567ffffffffffffffff8082111561178957600080fd5b818501915085601f83011261179d57600080fd5b8135818111156117ac57600080fd5b8660208260051b85010111156117c157600080fd5b60209290920196919550909350505050565b60008083601f8401126117e557600080fd5b50813567ffffffffffffffff8111156117fd57600080fd5b60208301915083602082850101111561181557600080fd5b9250929050565b6000806000806060858703121561183257600080fd5b8435935060208501359250604085013567ffffffffffffffff81111561185757600080fd5b611863878288016117d3565b95989497509550505050565b6020815260006116d4602083018461161f565b6000806020838503121561189557600080fd5b823567ffffffffffffffff8111156118ac57600080fd5b6118b8858286016117d3565b90969095509350505050565b600080604083850312156118d757600080fd5b50508035926020909101359150565b8581526001600160a01b0385811660208301528416604082015260a0606082018190526000906116999083018561161f565b600181811c9082168061192c57607f821691505b60208210810361194c57634e487b7160e01b600052602260045260246000fd5b50919050565b634e487b7160e01b600052603260045260246000fd5b6020808252600a908201526927b7363c9037bbb732b960b11b604082015260600190565b634e487b7160e01b600052604160045260246000fd5b604051601f8201601f1916810167ffffffffffffffff811182821017156119cb576119cb61198c565b604052919050565b600067ffffffffffffffff808411156119ee576119ee61198c565b8360051b60206119ff8183016119a2565b868152918501918181019036841115611a1757600080fd5b865b84811015611a9c57803586811115611a315760008081fd5b8801601f3681830112611a445760008081fd5b813588811115611a5657611a5661198c565b611a67818301601f191688016119a2565b91508082523687828501011115611a7e5760008081fd5b80878401888401376000908201870152845250918301918301611a19565b50979650505050505050565b634e487b7160e01b600052601160045260246000fd5b81810381811115611ad157611ad1611aa8565b92915050565b80820180821115611ad157611ad1611aa8565b81835281816020850137506000828201602090810191909152601f909101601f19169091010190565b6040808252810183905260006060600585901b8301810190830186835b87811015611ba457858403605f190183528135368a9003601e19018112611b5657600080fd5b8901602081810191359067ffffffffffffffff821115611b7557600080fd5b813603831315611b8457600080fd5b611b8f878385611aea565b96509485019493909301925050600101611b30565b505050602092909201929092529392505050565b60208082526018908201527f4e6f7420616e20617574686f72697a6564206973737565720000000000000000604082015260600190565b60208082526010908201526f125cdcdd595c881cdd5cdc195b99195960821b604082015260600190565b601f821115611c65576000816000526020600020601f850160051c81016020861015611c425750805b601f850160051c820191505b81811015611c6157828155600101611c4e565b5050505b505050565b67ffffffffffffffff831115611c8257611c8261198c565b611c9683611c908354611918565b83611c19565b6000601f841160018114611cca5760008515611cb25750838201355b600019600387901b1c1916600186901b178355611d24565b600083815260209020601f19861690835b82811015611cfb5786850135825560209485019460019092019101611cdb565b5086821015611d185760001960f88860031b161c19848701351681555b505060018560011b0183555b5050505050565b815167ffffffffffffffff811115611d4557611d4561198c565b611d5981611d538454611918565b84611c19565b602080601f831160018114611d8e5760008415611d765750858301515b600019600386901b1c1916600185901b178555611c61565b600085815260208120601f198616915b82811015611dbd57888601518255948401946001909101908401611d9e565b5085821015611ddb5787850151600019600388901b60f8161c191681555b5050505050600190811b01905550565b604081526000611dff604083018587611aea565b9050826020830152949350505050565b602081526000611e23602083018486611aea565b94935050505056fea2646970667358221220880c165e704ce6971fd91df33f617c56fbd20e690bb0ff0ca81e2139f689ea8c64736f6c63430008170033",
  "linkReferences": {},
  "deployedLinkReferences": {}
}